S00E00004D4F50424F542E7372656345
S1130000B2C00000C4C00000C2C00000C0C00000F4
S1130010BEC00000BCC00000BAC00000B8C00000F0
S1130020B6C00000B4C00000B2C00000B0C0000000
S1130030AEC00000ACC00000AAC00000A8C0000010
S1130040A6C00000A4C00000A2C00000A0C0000020
S11300509EC000009CC000009AC0000098C0000030
S113006096C0000094C0000092C0000090C0000040
S11300708EC000008CC000008AC0000088C0000050
S113008086C0000084C0000082C0000080C0000060
S11300907EC000007CC000007AC0000078C0000070
S11300A076C0000074C0000072C0000070C0000080
S11300B06EC000006CC000006AC0000068C0000090
S11300C066C0000064C0000062C0000060C00000A0
S11300D05EC000005CC000005AC0000058C00000B0
S11300E056C0000007634236B79BD8A71A39685632
S11300F018AEBAAB558C1D3CB7CC5763BD6DEDFD46
S1130100753EF6177231BF000000803F0800000002
S1130110BE922449123EABAAAA2ABECDCCCC4C3EF8
S113012000000080BEABAAAAAA3E00000000BF00E7
S11301300000803F0000000000084178D3BB4387E3
S1130140D1133D190E3CC3BD4282AD2B3E68EC82F7
S113015076BED98FE1A93E4C80EFFFBE01C4FF7F7C
S11301603F000000000011241FBECFEFD1E2DEBF2C
S1130170CDBF00E00CBF22E0A0E0B2E001C01D92C0
S1130180A136B207E1F70E9474090C94ED1038CF40
S1130190EAE7F0E0108210927B0080E280937C001A
S11301A080E880BF86E88083089510BA11BA10925F
S11301B00701109208010895883018F098E0909390
S11301C07B008770806280937C00EAE7F0E08081A6
S11301D080648083808184FFFDCF80917900EAE789
S11301E0F0E090819061908310927B00089521301B
S11301F0310519F4865A9F4F08952230310591F440
S11302006C547F4FCB01992324F488279927861BAC
S1130210970B84319105ACF0813A9105BCF080EAEA
S113022090E0089584EB90E0861B970B841B950B5C
S1130230843191054CF0813A910544F080EA90E0D4
S1130240089584E190E0089584E190E00895EF92A8
S1130250FF920F931F93CF93DF9321E030E041E5AA
S113026050E062EE7FEF88EC9FEFC1DF90930502D0
S11302708093040222E030E041E550E062EE7FEF3B
S113028088EC9FEFB4DF909303028093020223E093
S113029030E041E550E062EE7FEF88EC9FEFA7DFAE
S11302A090930102809300020F2EF4E0EF2EF2E00F
S11302B0FF2EF02DF70180810E94330A02E012E044
S11302C0F80180810E94480AC0E0D2E088810E943F
S11302D05D0AFFEF2FE784E0F15020408040E1F712
S11302E000C0000021E030E042E550E06DED7FEF1A
S11302F088EC9FEF7CDF909305028093040222E058
S113030030E042E550E06DED7FEF88EC9FEF6FDF6A
S1130310909303028093020223E030E042E550E030
S11303206DED7FEF88EC9FEF62DF90930102809385
S11303300002F70180810E94330AF80180810E9443
S1130340480A88810E945D0AFFEF2FE784E0F1509C
S113035020408040E1F700C0000021E030E043E5A8
S113036050E068ED7FEF88EC9FEF41DF909305024A
S11303708093040222E030E043E550E068ED7FEF33
S113038088EC9FEF34DF909303028093020223E012
S113039030E043E550E068ED7FEF88EC9FEF27DF26
S11303A09093010280930002F70180810E94330A36
S11303B0F80180810E94480A88810E945D0AFFEF4B
S11303C02FE784E0F15020408040E1F700C00000B6
S11303D021E030E042E550E064ED7FEF88EC9FEFF0
S11303E006DF909305028093040222E030E042E5A8
S11303F050E064ED7FEF88EC9FEFF9DE9093030209
S11304008093020223E030E042E550E064ED7FEFA8
S113041088EC9FEFECDE9093010280930002F701D9
S113042080810E94330AF80180810E94480A8881F1
S11304300E945D0AFFEF2FE784E0F15020408040E6
S1130440E1F700C0000021E030E041E550E060ED5C
S11304507FEF88EC9FEFCBDE90930502809304023C
S113046022E030E041E550E060ED7FEF88EC9FEF63
S1130470BEDE909303028093020223E030E041E564
S113048050E060ED7FEF88EC9FEFB1DE90930102C6
S113049080930002F7018081E6D7F8018081F8D7C4
S11304A088810E945D0AFFEF2FE784E0F15020402D
S11304B08040E1F700C0000021E030E042E550E078
S11304C064ED7FEF88EC9FEF92DE909305028093BA
S11304D0040222E030E042E550E064ED7FEF88EC76
S11304E09FEF85DE909303028093020223E030E0C5
S11304F042E550E064ED7FEF88EC9FEF78DE909367
S1130500010280930002F7018081ADD7F801808158
S1130510BFD78881D2D7FFEF2FE784E0F150204086
S11305208040E1F700C0000021E030E043E550E006
S113053068ED7FEF88EC9FEF5ADE9093050280937D
S1130540040222E030E043E550E068ED7FEF88EC00
S11305509FEF4DDE909303028093020223E030E08C
S113056043E550E068ED7FEF88EC9FEF40DE909329
S1130570010280930002F701808175D7F801808120
S113058087D788819AD7FFEF2FE784E0F150204086
S11305908040E1F700C0000021E030E042E550E097
S11305A06DED7FEF88EC9FEF22DE90930502809340
S11305B0040222E030E042E550E06DED7FEF88EC8C
S11305C09FEF15DE909303028093020223E030E054
S11305D042E550E06DED7FEF88EC9FEF08DE9093ED
S11305E0010280930002F70180813DD7F8018081E8
S11305F04FD7888162D7FFEF2FE784E0F150204086
S11306008040E1F700C0000021E030E041E550E027
S113061062EE7FEF88EC9FEFEADD90930502809312
S1130620040222E030E041E550E062EE7FEF88EC26
S11306309FEFDDDD909303028093020223E030E01C
S113064041E550E062EE7FEF88EC9FEFD0DD9093C0
S1130650010280930002F701808105D7F8018081AF
S113066017D788812AD7FFEF2FE784E0F150204085
S11306708040E1F700C00000DF91CF911F910F91FE
S1130680FF90EF900895EF92FF920F931F93CF93F3
S1130690DF9321E030E04CE850E06FEB7FEF84ED36
S11306A09FEFA5DD909305028093040222E030E0E1
S11306B04CE850E06FEB7FEF84ED9FEF98DD909373
S11306C003028093020223E030E04CE850E06FEB39
S11306D07FEF84ED9FEF8BDD909301028093000206
S11306E00F2EF4E0EF2EF2E0FF2EF02DF7018081C3
S11306F0BAD602E012E0F80180818C5EC9D6C0E06F
S1130700D2E088818451D9D64091040250910502E7
S113071023E030E061E081E0F4D4409102025091A2
S1130720030223E030E065E081E0EBD44091000275
S11307305091010223E030E069E081E0E2D4FFEF70
S11307402FE784E0F15020408040E1F700C0000032
S113075021E030E04FE850E06EEB7FEF8AED9FEF51
S113076046DD909305028093040222E030E04FE8D6
S113077050E06EEB7FEF8AED9FEF39DD909303023B
S11307808093020223E030E04FE850E06EEB7FEF0D
S11307908AED9FEF2CDD9093010280930002F70114
S11307A0808161D6F80180818C5E72D68881845103
S11307B084D6409104025091050223E030E061E0C8
S11307C081E09FD4409102025091030223E030E083
S11307D065E081E096D4409100025091010223E04B
S11307E030E069E081E08DD4FFEF2FE784E0F15041
S11307F020408040E1F700C0000021E030E041E902
S113080050E06DEB7FEF81EE9FEFF1DC90930502FA
S11308108093040222E030E041E950E06DEB7FEF89
S113082081EE9FEFE4DC909303028093020223E0C5
S113083030E041E950E06DEB7FEF81EE9FEFD7DCD4
S11308409093010280930002F70180810CD6F80195
S113085080818C5E1DD6888184512FD640910402FC
S11308605091050223E030E061E081E04AD44091F8
S113087002025091030223E030E065E081E041D4BC
S1130880409100025091010223E030E069E081E0F0
S113089038D4FFEF2FE784E0F15020408040E1F7A7
S11308A000C0000021E030E041E950E06DEB7FEF53
S11308B089EE9FEF9CDC909305028093040222E072
S11308C030E041E950E06DEB7FEF89EE9FEF8FDC84
S11308D0909303028093020223E030E041E950E068
S11308E06DEB7FEF89EE9FEF82DC909301028093A2
S11308F00002F7018081B7D5F80180818C5EC8D5EC
S113090088818451DAD5409104025091050223E094
S113091030E061E081E0F5D340910202509103029E
S113092023E030E065E081E0ECD340910002509197
S1130930010223E030E069E081E0E3D3FFEF2FE739
S113094084E0F15020408040E1F700C0000021E045
S113095030E041E950E06DEB7FEF82EF9FEF47DC41
S1130960909305028093040222E030E041E950E0D4
S11309706DEB7FEF82EF9FEF3ADC9093030280935D
S1130980020223E030E041E950E06DEB7FEF82EFBB
S11309909FEF2DDC9093010280930002F701808188
S11309A062D5F80180818C5E73D58881845185D5A8
S11309B0409104025091050223E030E061E081E0BF
S11309C0A0D3409102025091030223E030E065E09D
S11309D081E097D3409100025091010223E030E07E
S11309E069E081E08ED3FFEF2FE784E0F1502040EF
S11309F08040E1F700C0000021E030E04FE850E023
S1130A006EEB7FEF8AEF9FEFF2DB9093050280930A
S1130A10040222E030E04FE850E06EEB7FEF8AEF13
S1130A209FEFE5DB909303028093020223E030E022
S1130A304FE850E06EEB7FEF8AEF9FEFD8DB9093A7
S1130A40010280930002F70180810DD5F8018081B5
S1130A508C5E1ED58881845130D54091040250911A
S1130A60050223E030E061E081E04BD340910202D3
S1130A705091030223E030E065E081E042D34091ED
S1130A8000025091010223E030E069E081E039D3B3
S1130A90FFEF2FE784E0F15020408040E1F700C0F1
S1130AA0000021E030E04CE850E06FEB7FEF82E0A3
S1130AB090E09DDB909305028093040222E030E0F5
S1130AC04CE850E06FEB7FEF82E090E090DB909396
S1130AD003028093020223E030E04CE850E06FEB25
S1130AE07FEF82E090E083DB909301028093000229
S1130AF0F7018081B8D4F80180818C5EC9D48881E3
S1130B008451DBD4409104025091050223E030E08B
S1130B1061E081E0F6D2409102025091030223E0A9
S1130B2030E065E081E0EDD2409100025091010295
S1130B3023E030E069E081E0E4D2FFEF2FE784E0D6
S1130B40F15020408040E1F700C0000021E030E097
S1130B504FE850E06EEB7FEF8AEF9FEF48DB909316
S1130B6005028093040222E030E04FE850E06EEB8F
S1130B707FEF8AEF9FEF3BDB9093030280930202A7
S1130B8023E030E04FE850E06EEB7FEF8AEF9FEF19
S1130B902EDB9093010280930002F701808163D4DD
S1130BA0F80180818C5E74D48881845186D440910C
S1130BB004025091050223E030E061E081E0A1D21B
S1130BC0409102025091030223E030E065E081E0AD
S1130BD098D2409100025091010223E030E069E094
S1130BE081E08FD2FFEF2FE784E0F1502040804076
S1130BF0E1F700C0000021E030E041E950E06DEB96
S1130C007FEF82EF9FEFF3DA909305028093040263
S1130C1022E030E041E950E06DEB7FEF82EF9FEF9F
S1130C20E6DA909303028093020223E030E041E984
S1130C3050E06DEB7FEF82EF9FEFD9DA90930102E2
S1130C4080930002F70180810ED4F80180818C5ECC
S1130C501FD48881845131D44091040250910502FB
S1130C6023E030E061E081E04CD2409102025091F7
S1130C70030223E030E065E081E043D240910002CA
S1130C805091010223E030E069E081E03AD2FFEFC5
S1130C902FE784E0F15020408040E1F700C00000DD
S1130CA021E030E041E950E06DEB7FEF89EE9FEF0A
S1130CB09EDA909305028093040222E030E041E939
S1130CC050E06DEB7FEF89EE9FEF91DA9093030292
S1130CD08093020223E030E041E950E06DEB7FEFC6
S1130CE089EE9FEF84DA9093010280930002F7016A
S1130CF08081B9D3F80180818C5ECAD38881845104
S1130D00DCD3409104025091050223E030E061E01D
S1130D1081E0F7D1409102025091030223E030E0D8
S1130D2065E081E0EED1409100025091010223E0A0
S1130D3030E069E081E0E5D1FFEF2FE784E0F15096
S1130D4020408040E1F700C0000021E030E041E9AC
S1130D5050E06DEB7FEF81EE9FEF49DA909305024F
S1130D608093040222E030E041E950E06DEB7FEF34
S1130D7081EE9FEF3CDA909303028093020223E01A
S1130D8030E041E950E06DEB7FEF81EE9FEF2FDA29
S1130D909093010280930002F701808164D3F801EB
S1130DA080818C5E75D38881845187D340910402FD
S1130DB05091050223E030E061E081E0A2D140914E
S1130DC002025091030223E030E065E081E099D112
S1130DD0409100025091010223E030E069E081E09B
S1130DE090D1FFEF2FE784E0F15020408040E1F7FD
S1130DF000C0000021E030E04FE850E06EEB7FEFF0
S1130E008AED9FEFF4D9909305028093040222E0C7
S1130E1030E04FE850E06EEB7FEF8AED9FEFE7D9CB
S1130E20909303028093020223E030E04FE850E005
S1130E306EEB7FEF8AED9FEFDAD9909301028093F6
S1130E400002F70180810FD3F80180818C5E20D3EA
S1130E508881845132D3409104025091050223E0E9
S1130E6030E061E081E04DD14091020250910302F3
S1130E7023E030E065E081E044D1409100025091EC
S1130E80010223E030E069E081E03BD1FFEF2FE78E
S1130E9084E0F15020408040E1F700C0000021E0F0
S1130EA030E04CE850E06FEB7FEF84ED9FEF9FD98B
S1130EB0909305028093040222E030E04CE850E075
S1130EC06FEB7FEF84ED9FEF92D9909303028093B1
S1130ED0020223E030E04CE850E06FEB7FEF84ED5A
S1130EE09FEF85D99093010280930002F7018081DE
S1130EF0BAD2F80180818C5ECBD288818451DDD254
S1130F00409104025091050223E030E061E081E069
S1130F10F8D0409102025091030223E030E065E0F2
S1130F2081E0EFD0409100025091010223E030E0D3
S1130F3069E081E0E6D0FFEF2FE784E0F150204044
S1130F408040E1F700C00000DF91CF911F910F9125
S1130F50FF90EF9008953B9A439808950FD025D9B8
S1130F6037D2F9DF91D37BC20895F894F7DF10D913
S1130F7049D364D36ED371D07894089587B1876FC1
S1130F8087B988B1807888B9089586E69EE001978C
S1130F90F1F700004098419880E388B9429AEFEF56
S1130FA0F7E43197F1F700C000004298E6E6FEE06E
S1130FB03197F1F700004098419888B9429AEFEFD1
S1130FC0F7E43197F1F700C000004298E6E6FEE04E
S1130FD03197F1F700004098419888B9429A8FEF11
S1130FE097E40197F1F700C000004298E6E6FEE0BE
S1130FF03197F1F700004098419880E288B9429A0D
S11310008FEF97E40197F1F700C00000429808952C
S113101098B19F7098B998B1282F207F922B98B9D6
S113102040984198429AEFEFF7E43197F1F700C006
S11310300000429898B19F7098B998B18295807FCA
S1131040892B88B940984198429A8FEF97E4019789
S1131050F1F700C000004298089597DF86E69EE00D
S11310600197F1F7000088E2D3DF81E0D1DF86E069
S1131070CFDF8EE0CDDF80E8CBCF089598B19F70AD
S113108098B998B1282F207F922B98B9409A41980B
S1131090429AEFEFF7E43197F1F700C0000042986D
S11310A08295807F98B19F7098B998B1892B88B93F
S11310B0409A4198429A8FEF97E40197F1F700C064
S11310C000004298089580E8A3CF0895823069F023
S11310D01CF4813031F00895833059F0843069F084
S11310E008958FE7860F94CF08958FEB860F90CFE6
S11310F0089583E9860F8CCF089583ED860F88CFFA
S113110008950F931F93CF93DF938A01E9018823F6
S113111011F0611102C0D7DF01C0D8DFC530D1059D
S113112009F0D4C09801329522952F7023273F707F
S11311302327A7E4B3E00E94DE1096958795969541
S1131140879596958795C09690933D0280933C022F
S113115095DF9801369527953695279536952795E9
S1131160A5ECB0E20E94DE10AC01529542954F709E
S113117045275F70452750933F0240933E029A01F2
S1131180ADECBCEC0E94DE109695879596958795FC
S1131190969587959C01220F331F880F991F880FFE
S11311A0991F880F991F820F931F9A01281B390BCF
S11311B0C901C09690934702809346025FDF03C043
S11311C0C330D10579F5980136952795369527953D
S11311D0ABE7B4E1F3D7AC015695479550933F0282
S11311E040933E029A01ADECBCECE8D79695879506
S11311F096958795969587959C01220F331F880FA6
S1131200991F880F991F880F991F820F931F9A01A6
S1131210281B390BC901C096909343028093420264
S11312202DDF04C0C230D10509F055C09801ADECE2
S1131230BCECC4D7AC015695479556954795569541
S1131240479550933F0240933E029A01B7D7969533
S1131250879596958795969587959C01220F331FC0
S1131260880F991F880F991F880F991F820F931F4A
S11312709A01281B390BC901C096909341028093AF
S11312804002FCDE9801ADECBCEC98D796958795AE
S113129096958795969587959C01220F331F880F05
S11312A0991F880F991F880F991F820F931F980108
S11312B0281B390BC901C0969093450280934402C0
S11312C0DDDE269764F085E4D9DE09C0C430D1059B
S11312D009F076CF3ECFC130D10599F7D3CFDF9156
S11312E0CF911F910F910895CF93DF9300D0CDB785
S11312F0DEB73BDE66246394712C0F2EF5E04F2E8F
S1131300512CF02D0F2EF9E1CF2ED12CF02DEE24FF
S1131310E394F12C19820F2EF4E12F2E312CF02DB1
S1131320E1D08C01D1D19B838A83B0D2BC01990FC7
S1131330880B990B8BD44B015C012A813B81B90149
S1131340330F880B990B82D4A5019401CDD44B01A2
S11313505C0160E689818C5952D0C501B40143D443
S1131360C10164D089830C151D0594F440165106FF
S11313707CF48AE590E053D03FEF8FE796E131505B
S113138080409040E1F700C000002FEFE21AF20A1B
S113139034E0E316F10499F487E3281631047CF46D
S11313A095E0290E311C25E0C20ED11C35E0430E18
S11313B0511C612C712CEE24E394F12C07C081E0C4
S11313C06816710419F40E942701AACF5CD9A8CF2A
S11313D081B18F6081B982B1807F82B9EAE0F1E0A6
S11313E0808188618083EBE0F1E080818861808383
S11313F0089592B1907F8F70982B92B90895CF93EE
S1131400DF93D82FC62F86E0F4DFD0932801C09352
S11314102A01DF91CF9108958AE0EBCF0895FCDF94
S113142082E88093280180932A010895861B970BF4
S11314309C012F5F3F4F2330310570F0880F991FB7
S11314408338910514F086E990E08A3B2FEF9207E8
S11314502CF48AEB9FEF089580E090E0089580EEED
S113146084B985B90895682F70E080E090E0ECD3EA
S11314702DEC3BE34EE05FE3E7D42CEE31E541E4B1
S113148052E4E5D2B5D3709389006093880008953F
S1131490682F70E080E090E0D7D32DEC3BE34EE082
S11314A05FE3D2D42CEE31E541E452E4D0D2A0D3B0
S11314B070938B0060938A000895682F70E080E039
S11314C090E0C2D32DEC3BE34EE05FE3BDD42CEEC1
S11314D031E541E452E4BBD28BD370938D00609329
S11314E08C000895CF92DF92EF92FF920F931F9397
S11314F0CF93DF938BE00E94DC0080935402682F2B
S113150070E080E090E0A0D32FEE39EC43E95FE394
S1131510FED49B01AC0160E070E080E89FE3FBD265
S11315202AE939EF4EE255E48FD4609310027093A8
S11315301102809312029093130220910A023091B7
S11315400B02F901EE0FFF1FEE0FFF1FE85BFD4FCB
S11315506083718382839383C901019683309105EB
S11315602CF490930B0280930A023FC002E010E037
S113157010930B0200930A02C8E4D2E02881398157
S11315804A815B8160910C0270910D0280910E0280
S113159090910F025CD22C813D814E815F81288322
S11315A039834A835B83C884D984EA84FB84CC82EC
S11315B0DD82EE82FF82109309020093080247D273
S11315C0A701960144D220E030E040E450E4A3D2E5
S11315D00AD3709307026093060210920C021092D1
S11315E00D0210920E0210920F0280910602909149
S11315F00702DF91CF911F910F91FF90EF90DF9041
S1131600CF900895E1E8F0E01082109285001092E6
S113161084001092890081E68093880010928B00E8
S113162080938A0010928D0080938C008BEA8093C3
S11316308000109282008CE0808308951092A500AF
S11316401092A4001092A00084E08093A1007894EA
S11316500895E1E2F1E010828FEF8093250191E09B
S113166090932401109229018093280110922B0158
S113167080932A0110922D0180932C0189EA809392
S113168020018BE0808308958FE3809304011092FE
S113169005010895E5E0F1E084E0808386EF8A9512
S11316A0F1F7108281E38A95F1F700000895E5E0EF
S11316B0F1E088E0808386EF8A95F1F7108281E378
S11316C08A95F1F7000008950F931F93CF93DF934A
S11316D0E1DF81E089BBE3E0F1E0A4EAB0E021E0EE
S11316E030E083C08081882354F080913A02909145
S11316F03B02892B09F0ACC011961C921E9280818A
S1131700882394F480913A0290913B02892B61F4EE
S113171011961C921E9230933B0220933A028081D0
S113172088230CF462C00BC0808188230CF45DC054
S113173080913A0290913B02019709F056C0609162
S1131740A5008091A40070E0762F6627680F711DB4
S1131750072E000C880B990B79D260933202709398
S11317603302809334029093350220E030E044E069
S113177052E46AD320E030E04AEF52E4CCD16093E3
S1131780360270933702809338029093390299D2CB
S11317902AD27093560260935502C0912C02D091C4
S11317A02D028E01000F111F000F111F075A1D4F2C
S11317B0072E000C880B990B49D2F80160837183C2
S11317C0828393832196D0932D02C0932C0281E0CF
S11317D089BB10923B0210923A0280912C029091A4
S11317E02D021816190624F02EC0C89B7BCF3BC0CF
S11317F010922D0210922C0210922B0210922A02A7
S113180020912E0230912F024091300250913102EA
S11318106091590270915A0280915B0290915C022E
S113182016D120E030E040EA50E411D1DCD17093CD
S113183029026093280210922E0210922F02109215
S1131840300210923102809128029091290219C02D
S113185080816ACF10922D0210922C0210922B02DA
S113186010922A02CDCF81E089BB10923B021092E4
S11318703A0280912C0290912D02181619061CF739
S1131880E9CFDF91CF911F910F9108950F931F938B
S1131890CF93DF930CDF81E089BBE3E0F1E0A4EABE
S11318A0B0E021E030E081C0808186FD0AC08091F3
S11318B0260290912702892B09F0AAC011961C9246
S11318C01E92808186FF11C080912602909127028A
S11318D0892B59F411961C921E923093270220935F
S11318E02602808186FD61C00AC0808186FD5DC0BC
S11318F08091260290912702019709F056C06091C9
S1131900A5008091A40070E0762F6627680F711DF2
S1131910072E000C880B990B99D160931E027093CB
S11319201F02809320029093210220E030E044E0E3
S113193052E48AD220E030E04AEF52E4ECD06093E3
S11319402202709323028093240290932502B9D13A
S11319504AD17093580260935702C0911802D091F3
S113196019028E01000F111F000F111F035A1D4F82
S1131970072E000C880B990B69D1F80160837183E1
S1131980828393832196D0931902C093180281E035
S113199089BB10922702109226028091180290911E
S11319A019021816190624F02EC0C89B7DCF3BC01F
S11319B01092190210921802109217021092160235
S11319C020911A0230911B0240911C0250911D0279
S11319D060915D0270915E0280915F02909160025D
S11319E036D020E030E040EA50E431D0FCD07093AF
S11319F015026093140210921A0210921B021092A4
S1131A001C0210921D02809114029091150219C0BB
S1131A1080816BCF10921902109218021092170253
S1131A2010921602CDCF81E089BB1092270210924A
S1131A3026028091180290911902181619061CF7B3
S1131A40E9CFDF91CF911F910F9108955058BB2793
S1131A50AA270ED0A8C199D130F09ED120F031F43C
S1131A609F3F11F41EF48EC10EF4E095E7FB5BC1B9
S1131A70E92FAAD180F3BA17620773078407950781
S1131A8018F071F49EF5D9C10EF4E0950B2EBA2F1F
S1131A90A02D0B01B90190010C01CA01A001112470
S1131AA0FF27591B99F0593F50F4503E68F11A161C
S1131AB0F040A22F232F342F4427585FF3CF4695AD
S1131AC037952795A795F0405395C9F77EF41F16CF
S1131AD0BA0B620B730B840BBAF09150A1F0FF0F99
S1131AE0BB1F661F771F881FC2F70EC0BA0F621F85
S1131AF0731F841F48F4879577956795B795F79575
S1131B009E3F08F0B3CF9395880F08F09927EE0F06
S1131B109795879508950CD046C13ED140F035D1B4
S1131B2030F021F45F3F19F0FEC0511187C12AC182
S1131B304BD198F39923C9F35523B1F3951B550B56
S1131B40BB27AA2762177307840738F09F5F5F4F8C
S1131B50220F331F441FAA1FA9F333D00E2E3AF0CD
S1131B60E0E830D091505040E695001CCAF729D0E7
S1131B70FE2F27D0660F771F881FBB1F2617370736
S1131B804807AB07B0E809F0BB0B802DBF01FF2766
S1131B9093585F4F2AF09E3F510568F0C4C04EC170
S1131BA05F3FECF3983EDCF3869577956795B795A0
S1131BB0F7959F5FC9F7880F911D9695879597F9BB
S1131BC00895E1E0660F771F881FBB1F6217730734
S1131BD08407BA0720F0621B730B840BBA0BEE1F49
S1131BE088F7E095089504D06894B11127C1089549
S1131BF0F3D088F09F5790F0B92F9927B751A0F0F0
S1131C00D1F0660F771F881F991F1AF0BA95C9F78C
S1131C1012C0B13081F011D1B1E008950EC1672F27
S1131C20782F8827B85F39F0B93FCCF3869577953C
S1131C306795B395D9F73EF4909580957095619525
S1131C407F4F8F4F9F4F0895E89409C097FB3EF450
S1131C5090958095709561957F4F8F4F9F4F9923F5
S1131C60A9F0F92F96E9BB279395F6958795779573
S1131C706795B795F111F8CFFAF4BB0F11F460FF33
S1131C801BC06F5F7F4F8F4F9F4F16C0882311F08B
S1131C9096E911C0772321F09EE8872F762F05C09F
S1131CA0662371F096E8862F70E060E02AF09A953A
S1131CB0660F771F881FDAF7880F9695879597F92F
S1131CC00895A4D080F09F3740F491110EF0B6C06F
S1131CD060E070E080E89FEB089526F41B16611D18
S1131CE0711D811D26C040C0990FBB0B550FAA0B57
S1131CF0E0E8FEEF16161706E807F90770F012166B
S1131D001306E407F50760F0BA1754F031F4261708
S1131D10370748075907A7951BF4B901CA01BA2F19
S1131D20B6959795089597F99F6780E870E060E00D
S1131D300895882371F4772321F09850872B762F08
S1131D4007C0662311F499270DC09051862B70E0CB
S1131D5060E02AF09A95660F771F881FDAF7880FDC
S1131D609695879597F908959F3F31F0915020F407
S1131D70879577956795B795880F911D9695879563
S1131D8097F908959FEF80EC089500240A9416169D
S1131D90170618060906089500240A941216130655
S1131DA0140605060895092E0394000C11F48823E3
S1131DB052F0BB0F40F4BF2B11F460FF04C06F5FFF
S1131DC07F4F8F4F9F4F089557FD9058440F551FD5
S1131DD059F05F3F71F04795880F97FB991F61F0A9
S1131DE09F3F79F087950895121613061406551F20
S1131DF0F2CF4695F1DF08C0161617061806991F8C
S1131E00F1CF86957105610508940895E5DFA0F08A
S1131E10BEE7B91788F4BB279F3860F41616B11DC6
S1131E20672F782F8827985FF7CF869577956795E2
S1131E30B11D93959639C8F30895E894BB27662796
S1131E407727CB0197F908950BD0ADCF9EDF28F00B
S1131E50A3DF18F0952309F066CF94CF1124EECFB9
S1131E60B3DFA0F3959FD1F3950F50E0551F629F08
S1131E70F001729FBB27F00DB11D639FAA27F00DDF
S1131E80B11DAA1F649F6627B00DA11D661F829F06
S1131E902227B00DA11D621F739FB00DA11D621FEB
S1131EA0839FA00D611D221F749F3327A00D611D08
S1131EB0231F849F600D211D822F762F6A2F1124EA
S1131EC09F5750408AF0E1F088234AF0EE0FFF1F3D
S1131ED0BB1F661F771F881F91505040A9F79E3F74
S1131EE0510570F020CFAACF5F3FECF3983EDCF3AE
S1131EF0869577956795B795F795E7959F5FC1F7B1
S1131F00FE2B880F911D9695879597F90895FA01F0
S1131F10EE0FFF1F30962105310599F1611571050A
S1131F2061F48038BFE39B0749F1689490388105D8
S1131F3061F08038BFEF9B0741F0992342F5FF3FE2
S1131F40E1053105210511F1E8940894E795D901DB
S1131F50AA2329F4AB2FBE2FF85FD0F310C0FF5F84
S1131F6070F4A695E0F7F73950F019F0FF3A38F419
S1131F709F779F930CD00F9007FC905808953EF0E4
S1131F8001CF60E070E080E89FE308954FE79F771A
S1131F905F934F933F932F939ED02F913F914F91F7
S1131FA05F9152DF05C019F40EF0BDCE46CFEACEE4
S1131FB013DFC8F39638C0F707F80F92E8942BE3C1
S1131FC03AEA48EB5FE74EDF0F920F920F924DB75C
S1131FD05EB70F92C0D0E4EEF0E016D04F915F915F
S1131FE0EF91FF91E595EE1FFF1F49F0FE57E06862
S1131FF04427EE0F441FFA95E1F74195550B32D073
S11320000F9007FE26C00895DF93CF931F930F937D
S1132010FF92EF92DF927B018C01689405C0DA2E67
S1132020EF011EDFFE01E894A591259135914591BC
S11320305591AEF3EF011CDDFE019701A801DA947E
S113204079F7DF90EF90FF900F911F91CF91DF917F
S113205008959B01AC0160E070E080E89FE35BCDF4
S113206062CE82CEB9DEE8F39923D9F3940F511DE1
S1132070BBF39150504094F059F0882332F0660F2E
S1132080771F881F91505040C1F79E3F510544F778
S1132090880F911D9695879597F908955F3FACF049
S11320A0983E9CF0BB27869577956795B79508F47D
S11320B0B1609395C1F7BB0F58F711F460FFE8CFF7
S11320C06F5F7F4F8F4F9F4FE3CFB8CE0EF04CCE54
S11320D059CE689428CE80DEC8F39923D1F3C6F391
S11320E0DF93CF931F930F93FF92C92FDD2788238C
S11320F02AF02197660F771F881FDAF720E030E077
S113210040E85FEB9FE3883920F0803E30F0219671
S11321108F779DDCECE0F1E003C099DCE9E3F1E0CA
S113212073DF8B01BE01EC01FB2E6F5771097595AE
S1132130771F880B990B8ADD28E132E741E35FE3DF
S11321408FDEAF2D9801AE01FF900F911F91CF91BB
S1132150DF918EDC28CEFA01DC01AA0FBB1F9B01A4
S1132160AC01BF5728F422273327442750781FC0D7
S1132170B75188F4AB2F0024469537952795011C59
S1132180A395D2F3002069F0220F331F441FB395A7
S1132190DAF30DD05BCC61307105A0E88A07B9464B
S11321A030F49B01AC016627772788279078309616
S11321B021F020833183428353830895A29FB00189
S11321C0B39FC001A39F700D811D1124911DB29F67
S11121D0700D811D1124911D0895F894FFCF08
S9030000FC
